S01400005541435F4669726D776172652E737265639B
S113000049C0000057C0000055C0000053C00000A4
S113001051C000004FC000004DC000004BC00000A4
S113002049C0000047C0000045C0000043C00000B4
S113003041C000003FC000003DC000003BC00000C4
S113004098C1000037C0000035C0000033C0000074
S1130050C9C100002FC000002DC000002BC000004B
S113006029C0000038C0000025C0000023C00000E3
S113007021C000001FC000001DC000001BC0000004
S113008019C0000017C0000015C0000013C0000014
S113009011C0000011241FBECFEFD0E1DEBFCDBFE1
S11300A021E0A0E0B1E001C01D92A331B207E1F765
S11300B0EDD0D1C1A5CF81E480937C00EAE7F0E0E4
S11300C08CE88083808180648083EEE7F0E0808127
S11300D08160808308951F920F920FB60F921124AE
S11300E00BB60F922F933F938F93EF93FF938091CF
S11300F00001E82FF0E02091780030917900EE0FB4
S1130100FF1FE35FFE4F318320838F5F80930001E5
S1130110813011F410920001809100018064809379
S11301207C00FF91EF918F913F912F910F900BBE27
S11301300F900FBE0F901F90189580910D01909114
S11301400E010895883078F02091DD0090E0089742
S113015030E002C0359527958A95E2F781E020FFCB
S11301600DC080E008952091DC0030E002C0359598
S113017027958A95E2F781E020FD80E008951092AA
S1130180D80040E029C080E1489F90011124822FCB
S113019088608093ED001092EE001092EF001092B0
S11301A0F0001092F1001092F2001092F3001092FD
S11301B0F4001092F5001092F6001092F70080E01F
S11301C008C0982F922B98609093ED001092FA003B
S11301D08F5F8830B0F34F5F4F30A8F282E0809396
S11301E0E2008CE08093E30087E38093E4001092C4
S11301F0DB00E8EDF0E08081826080830895CF9396
S1130200DF93EC0120E010C08C8130E1839FC001BA
S11302101124822B88608093ED00FB01E20FF11D15
S113022080818093FA002F5F283070F38C8182954F
S1130230807F8093ED008C8185DF882321F1EEEEB1
S1130240F0E0108288819981969587959695879597
S1130250969587958093F30088818295880F807E98
S11302608093F2001092F1001092F0001092F700C7
S11302701092F6001092F5001092F400108288E4B7
S11302808093EF001082DF91CF910895CF93DF9395
S1130290CDB7DEB727970FB6F894DEBF0FBECDBF3C
S11302A06EDF5FD04FD007DF89D01C821B8283E0D2
S11302B097E09A83898382E08D8378948091080102
S11302C090910901A0910A01B0910B0140910401A0
S11302D050910501609106017091070184179507FB
S11302E0A607B70711F18093040190930501A09329
S11302F00601B0930701809103018F5F809303018E
S1130300809103018A3088F018DF8E8316DF9F8383
S1130310BE016A5F7F4FCE01019671DF1092030127
S1130320809102018F5F80930201809102018A30E3
S113033028F212D010920201809101018F5F809304
S11303400101BCCF83E081B980E484B917B81AB83D
S11303501DB810BA85B9089592B182E0892782B98F
S113036008958BE084BD82E080936E0089EF87BDA1
S113037008951F920F920FB60F9211248F939F939B
S1130380AF93BF938091080190910901A0910A0154
S1130390B0910B010196A11DB11D809308019093AA
S11303A00901A0930A01B0930B01BF91AF919F91F2
S11303B08F910F900FBE0F901F90189584B1876096
S11303C084B984B1877F84B984B1806384B985B1E9
S11303D0816085B985B1806385B987ED8CBD8DB5A4
S11303E08DBD08951F920F920FB60F9211240BB674
S11303F00F928F939F93EF93FF9380910C01E82FBB
S1130400F0E09EB5E15FFE4F909590838F5F8093FF
S11304100C01823031F485B1806185B985B18F7D5D
S113042085B980910C01843048F085B1816085B92B
S113043085B1806285B910920C0102C081E18EBD44
S1130440FF91EF919F918F910F900BBE0F900FBE74
S10D04500F901F901895F894FFCF49
S9030000FC
