S01000005541435F545932352E73726563C8
S113000049C0000057C0000055C0000053C00000A4
S113001051C000004FC000004DC000004BC00000A4
S113002049C0000047C0000045C0000043C00000B4
S113003041C000003FC000003DC000003BC00000C4
S113004053C3000037C0000035C0000033C00000B7
S113005031C000002FC000002DC000002BC00000E4
S113006029C0000028C0000025C0000023C00000F3
S113007021C000001FC000001DC000001BC0000004
S113008019C0000017C0000015C0000013C0000014
S113009011C0000011241FBECFEFD0E1DEBFCDBFE1
S11300A021E0A0E0B1E001C01D92AC32B207E1F75B
S11300B0B6D13DC4A5CF1F920F9200905F000F925E
S11300C0112400905B000F922F933F938F939F9383
S11300D0EF93FF93CF93DF93CDB7DEB78091000109
S11300E0882F90E028E730E0F90120813181880FE2
S11300F0991F835E9E4FFC01318320838091000110
S11301008F5F8093000180910001813011F410927F
S113011000018CE790E0209100012064FC01208321
S11301200000DF91CF91FF91EF919F918F913F91CB
S11301302F910F9000925B000F9000925F000F9040
S11301401F901895CF93DF9300D0CDB7DEB78A8385
S113015019828A818830C0F08DED90E0FC018081A5
S1130160882F90E02A81222F30E02850310902C0E4
S1130170959587952A95E2F78170992721E0892B37
S113018009F020E0298315C08CED90E0FC0180810A
S1130190882F90E02A81222F30E002C09595879520
S11301A02A95E2F78170992721E0892B09F020E054
S11301B0298389810F900F90DF91CF910895CF9378
S11301C0DF9300D0CDB7DEB788ED90E0FC0110825C
S11301D0198256C08DEE90E02981222F30E02295BD
S11301E03295307F3227207F32272860FC0120831C
S11301F08EEE90E0FC0110828FEE90E0FC01108204
S113020080EF90E0FC01108281EF90E0FC0110820D
S113021082EF90E0FC01108283EF90E0FC011082F9
S113022084EF90E0FC01108285EF90E0FC011082E5
S113023086EF90E0FC01108287EF90E0FC011082D1
S11302401A8218C08DEE90E02981222F30E0229589
S11302503295307F3227207F3227322F2A81232B79
S11302602860FC0120838AEF90E0FC0110828A81DF
S11302708F5F8A838A81883028F389818F5F89839D
S113028089818F3008F4A6CF82EE90E022E0FC0151
S1130290208383EE90E02CE0FC01208384EE90E048
S11302A027E3FC0120838BED90E0FC01108288EDB4
S11302B090E028ED30E0F90120812260FC012083E8
S11302C000000F900F90DF91CF910895CF93DF93AB
S11302D000D000D01F92CDB7DEB79B838A837D8385
S11302E06C83198224C08DEE90E02A813B81F90150
S11302F02481222F30E022953295307F3227207FCF
S11303003227322F2981232B2860FC0120838AEF96
S113031090E02981222F30E04C815D81240F351F2C
S1130320F9012081FC01208389818F5F8983898180
S11303308830C8F28DEE90E02A813B81F901248156
S11303402295207FFC0120838A819B81FC0184818A
S1130350F9DE882309F444C08EEE90E0FC0110829B
S113036083EF90E02A813B81F90120813181369528
S113037027953695279536952795FC01208382EF9E
S113038090E02A813B81F901208131812295220F5D
S1130390207EFC01208381EF90E0FC01108280EF3D
S11303A090E0FC01108287EF90E0FC01108286EF60
S11303B090E0FC01108285EF90E0FC01108284EF54
S11303C090E0FC0110828EEE90E0FC0110828FEE32
S11303D090E028E4FC0120838EEE90E0FC01108282
S11303E000000F900F900F900F900F90DF91CF911E
S11303F00895CF93DF93CDB7DEB780E097E0909375
S1130400200180931F018FEF9FEF9093220180932F
S11304102101109223010000DF91CF910895EF9202
S1130420FF920F931F93CF93DF93CDB7DEB72D9732
S11304300FB6F894DEBF0FBECDBF20D13ED1BFDED4
S1130440D8DF02D281E397E09A8389838FEF9FEF0D
S11304509C838B831D8228E0CE010696FC01E22E4C
S11304601192EA94E9F778942091190130911A01D4
S113047040911B0150911C01809101019091020156
S1130480A0910301B0910401281739074A075B07BB
S113049081F08091190190911A01A0911B01B091F2
S11304A01C018093010190930201A0930301B09376
S11304B004012091190130911A0140911B015091BE
S11304C01C018091050190910601A0910701B09152
S11304D0080179018A01E81AF90A0A0B1B0BD801F1
S11304E0C7010A97A105B10580F080911901909187
S11304F01A01A0911B01B0911C01809305019093F6
S11305000601A0930701B0930801209119013091CD
S11305101A0140911B0150911C0180910901909195
S11305200A01A0910B01B0910C0179018A01E81A2A
S1130530F90A0A0B1B0BD801C70184369105A105E2
S1130540B10588F0A8D08091190190911A01A09169
S11305501B01B0911C018093090190930A01A0939F
S11305600B01B0930C012091190130911A014091B3
S11305701B0150911C0180910D0190910E01A091DD
S11305800F01B091100179018A01E81AF90A0A0BE6
S11305901B0BD801C701883C9105A105B10508F4DE
S11305A063CF809118018823B1F480E0CBD090937D
S11305B015018093140181E0809318018EE490E08A
S11305C0FC018081843039F4809111018091130100
S11305D08F5F80931301809118018130A9F481E029
S11305E0B1D09093170180931601109218018EE4F4
S11305F090E0FC018081843039F480911201809173
S113060013018F5F8093130180911601909117015C
S1130610892F99278E8380911601909117018F83DA
S11306208091140190911501892F992788878091D1
S1130630140190911501898786E68A8780911301B8
S11306408B87809112018C87809111018D87CE0157
S11306500696BC01CE01019639DE80911901909174
S11306601A01A0911B01B0911C0180930D0190937C
S11306700E01A0930F01B0931001F6CECF93DF9338
S1130680CDB7DEB781E290E023E0FC0120830000D7
S1130690DF91CF910895CF93DF93CDB7DEB782E298
S11306A090E022E230E0F901308122E02327FC01CE
S11306B020830000DF91CF910895CF93DF93CDB7CE
S11306C0DEB784E490E02BE0FC0120838EE690E02A
S11306D022E0FC01208387E490E029EFFC012083E1
S11306E00000DF91CF9108951F920F9200905F0058
S11306F00F9211248F939F93AF93BF93CF93DF9364
S1130700CDB7DEB78091190190911A01A0911B0118
S1130710B0911C010196A11DB11D80931901909304
S11307201A01A0931B01B0931C010000DF91CF912B
S1130730BF91AF919F918F910F9000925F000F90A6
S11307401F901895CF93DF93CDB7DEB72B970FB6D5
S1130750F894DEBF0FBECDBF8B871A8219821C822C
S11307601B821E821D8218861F821A8619868B851B
S1130770882F90E0009719F0019759F014C085E292
S113078090E025E230E0F90120812F7EFC012083F6
S11307900AC085E290E025E230E0F90120812F7D56
S11307A0FC012083000080E08DD0882F90E09A83A4
S11307B0898380E087D0882F90E09C838B838B850E
S11307C0882F90E0009719F0019759F014C085E242
S11307D090E025E230E0F90120812061FC012083D2
S11307E00AC085E290E025E230E0F9012081206230
S11307F0FC012083000089819A81382F22278B8174
S11308009C81822B932B9E838D838D819E819695D3
S11308108795969587959695879598878F832F8149
S1130820388549E1429FC001439F900D11249A8766
S1130830898789859A852B960FB6F894DEBF0FBEFB
S1130840CDBFDF91CF910895CF93DF93CDB7DEB7BE
S113085084E290E024E230E0F90120812760FC0189
S1130860208384E290E024E230E0F90120812063D7
S1130870FC01208384E290E024E230E0F90120814D
S1130880277FFC0120838CE490E02CE430E0F90124
S113089020812165FC0120838DE490E02DE430E08B
S11308A0F90120812160FC01208385E290E025E2AA
S11308B030E0F90120812063FC0120830000DF91F6
S11308C0CF910895CF93DF9300D0CDB7DEB78A835D
S11308D019828EE490E02A81FC01208319C0898169
S11308E08F5F89838981883C50F082E290E022E224
S11308F030E0F90120812160FC0120830FC082E2F5
S113090090E022E230E0F90120812E7FFC01208377
S11309108DE490E0FC01808188230CF78EE490E064
S1130920FC0180810F900F90DF91CF910895F8948E
S1050930FFCFF3
S9030000FC
