S01000005541435F545932352E73726563C8
S113000049C0000057C0000055C0000053C00000A4
S113001051C000004FC000004DC000004BC00000A4
S113002049C0000047C0000045C0000043C00000B4
S113003041C000003FC000003DC000003BC00000C4
S113004008C4000037C0000035C0000033C0000001
S113005031C000002FC000002DC000002BC00000E4
S113006029C000005EC0000025C0000023C00000BD
S113007021C000001FC000001DC000001BC0000004
S113008019C0000017C0000015C0000013C0000014
S113009011C0000011241FBECFEFD0E1DEBFCDBFE1
S11300A021E0A0E0B1E001C01D92A533B207E1F761
S11300B0F7D1E1C6A5CFCF93DF93CDB7DEB78CE7F9
S11300C090E021E4FC0120838AE790E02CE8FC0125
S11300D020838AE790E02AE730E0F9012081206458
S11300E0FC0120838EE790E02EE730E0F9012081C7
S11300F02160FC0120830000DF91CF910895CF930C
S1130100DF93CDB7DEB78AE790E02DECFC012083C6
S113011083E590E022E0FC0120830000DF91CF9191
S113012008951F920F9200905F000F921124009087
S11301305B000F922F933F938F939F93EF93FF93C3
S1130140CF93DF93CDB7DEB780910001882F90E085
S113015028E730E0F90120813181880F991F875EFB
S11301609E4FFC0131832083809100018F5F809337
S1130170000180910001813011F4109200018CE79C
S113018090E0209100012064FC0120830000DF91B5
S1130190CF91FF91EF919F918F913F912F910F906C
S11301A000925B000F9000925F000F901F901895D3
S11301B0CF93DF93CDB7DEB78091190190911A01E7
S11301C0DF91CF910895CF93DF9300D0CDB7DEB701
S11301D08A8319828A818830C0F08DED90E0FC0119
S11301E08081882F90E02A81222F30E02850310925
S11301F002C0959587952A95E2F78170992721E0A9
S1130200892B09F020E0298315C08CED90E0FC01D6
S11302108081882F90E02A81222F30E002C09595BA
S113022087952A95E2F78170992721E0892B09F0B7
S113023020E0298389810F900F90DF91CF91089559
S1130240CF93DF9300D0CDB7DEB788ED90E0FC010B
S11302501082198256C08DEE90E02981222F30E061
S113026022953295307F3227207F32272860FC0187
S113027020838EEE90E0FC0110828FEE90E0FC0172
S1130280108280EF90E0FC01108281EF90E0FC018D
S1130290108282EF90E0FC01108283EF90E0FC0179
S11302A0108284EF90E0FC01108285EF90E0FC0165
S11302B0108286EF90E0FC01108287EF90E0FC0151
S11302C010821A8218C08DEE90E02981222F30E02E
S11302D022953295307F3227207F3227322F2A8190
S11302E0232B2860FC0120838AEF90E0FC0110821C
S11302F08A818F5F8A838A81883028F389818F5F1E
S1130300898389818F3008F4A6CF82EE90E022E0C1
S1130310FC01208383EE90E024E0FC01208384EE42
S113032090E023E1FC0120838BED90E0FC0110823E
S113033088ED90E028ED30E0F90120812260FC0195
S1130340208300000F900F90DF91CF910895CF93F9
S1130350DF9300D000D01F92CDB7DEB79B838A8392
S11303607D836C83198224C08DEE90E02A813B81C9
S1130370F9012481222F30E022953295307F3227F3
S1130380207F3227322F2981232B2860FC012083F0
S11303908AEF90E02981222F30E04C815D81240F87
S11303A0351FF9012081FC01208389818F5F8983B6
S11303B089818830C8F28DEE90E02A813B81F90171
S11303C024812295207FFC0120838A819B81FC016A
S11303D08481F9DE882309F444C08EEE90E0FC01A8
S11303E0108283EF90E02A813B81F90120813181E1
S11303F0369527953695279536952795FC012083C4
S113040082EF90E02A813B81F9012081318122959C
S1130410220F207EFC01208381EF90E0FC011082FA
S113042080EF90E0FC01108287EF90E0FC011082E5
S113043086EF90E0FC01108285EF90E0FC011082D1
S113044084EF90E0FC0110828EEE90E0FC011082BB
S11304508FEE90E028E4FC0120838EEE90E0FC0116
S1130460108200000F900F900F900F900F90DF916B
S1130470CF910895CF93DF93CDB7DEB780E097E0B7
S113048090931C0180931B018FEF9FEF90931E01AB
S113049080931D0110921F010000DF91CF910895F8
S11304A0EF92FF920F931F93CF93DF93CDB7DEB7F5
S11304B0A8970FB6F894DEBF0FBECDBF8BD1B2D1D3
S11304C0FADDBEDED7DF75D280E197E09E878D87A7
S11304D08FEF9FEF988B8F87198A28E0CE01429681
S11304E0FC01E22E1192EA94E9F781E197E09B8FF7
S11304F08A8F8FEF9FEF9D8F8C8F1E8E28E0CE0109
S11305004F96FC01E22E1192EA94E9F77894209137
S113051015013091160140911701509118018091F5
S1130520010190910201A0910301B09104017901AC
S11305308A01E81AF90A0A0B1B0BD801C7010A97AA
S1130540A105B10508F48CC0DADD32DE9A83898313
S113055089819A81CC01A0E0B0E0BC01CD019AD39D
S1130560DC01CB0120E030EC4FE754E4BC01CD01C9
S1130570F8D2DC01CB0120E030E040EA50E4BC01D9
S1130580CD0116D4DC01CB018B839C83AD83BE8368
S113059020E030E040E250E46B817C818D819E81DB
S11305A07BD2DC01CB012AE037ED43EA5CE3BC01FA
S11305B0CD01D7D2DC01CB018F839887A987BA8775
S11305C020E030E048EC52E46F81788589859A8593
S11305D0EFD3DC01CB01BC01CD012BD3DC01CB017A
S11305E09C878B878B859C859923A4F48B859C851C
S11305F09195819591099C878B878B858A8B8B85B7
S11306009C85892F990F990B8F778B8B8B898068A9
S11306108B8B09C08B858A8B8B859C85892F990F41
S1130620990B8F778B8B1C8A1D8A1E8A1F8A188EC2
S1130630198E9E012E5E3F4FCE010D96B90187DEC5
S11306408091150190911601A0911701B0911801A4
S11306508093010190930201A0930301B0930401DC
S11306602091150130911601409117015091180104
S11306708091050190910601A0910701B0910801B4
S113068079018A01E81AF90A0A0B1B0BD801C70180
S113069084369105A105B10588F0B2D08091150189
S11306A090911601A0911701B09118018093050152
S11306B090930601A0930701B093080120911501BE
S11306C03091160140911701509118018091090150
S11306D090910A01A0910B01B0910C0179018A015A
S11306E0E81AF90A0A0B1B0BD801C701883C9105CB
S11306F0A105B10508F40BCF809114018823B1F44E
S113070080E0D5D0909311018093100181E0809313
S113071014018EE490E0FC018081843039F48091EE
S11307200D0180910F018F5F80930F01809114015F
S11307308130A9F481E0BBD090931301809312011E
S1130740109214018EE490E0FC018081843039F42D
S113075080910E0180910F018F5F80930F01809132
S1130760120190911301892F99278F8F8091120183
S11307709091130188A38091100190911101892F08
S1130780992789A380911001909111018AA386E68B
S11307908BA380910F018CA380910E018DA3809176
S11307A00D018EA39E01215E3F4FCE014A96B901F1
S11307B0CEDD8091150190911601A0911701B091A1
S11307C018018093090190930A01A0930B01B0933F
S11307D00C019DCECF93DF93CDB7DEB781E290E0DD
S11307E023E0FC01208380E390E020E330E0F90182
S11307F020812E7FFC0120830000DF91CF9108959A
S1130800CF93DF93CDB7DEB782E290E022E230E00F
S1130810F901308122E02327FC0120830000DF91CD
S1130820CF910895CF93DF93CDB7DEB784E490E002
S11308302BE0FC0120838EE690E022E0FC01208383
S113084087E490E029EFFC0120830000DF91CF9141
S113085008951F920F9200905F000F9211248F93BE
S11308609F93AF93BF93CF93DF93CDB7DEB78091C0
S1130870150190911601A0911701B09118010196EC
S1130880A11DB11D8093150190931601A09317012A
S1130890B09318010000DF91CF91BF91AF919F9168
S11308A08F910F9000925F000F901F901895CF9337
S11308B0DF93CDB7DEB72B970FB6F894DEBF0FBE2C
S11308C0CDBF8B871A8219821C821B821E821D82D5
S11308D018861F821A8619868B85882F90E00097C8
S11308E019F0019759F014C085E290E025E230E058
S11308F0F90120812F7EFC0120830AC085E290E06B
S113090025E230E0F90120812F7DFC0120830000E5
S113091080E08DD0882F90E09A83898380E087D00F
S1130920882F90E09C838B838B85882F90E00097A1
S113093019F0019759F014C085E290E025E230E007
S1130940F90120812061FC0120830AC085E290E046
S113095025E230E0F90120812062FC0120830000BF
S113096089819A81382F22278B819C81822B932B1A
S11309709E838D838D819E81969587959695879587
S11309809695879598878F832F81388549E1429F73
S1130990C001439F900D11249A87898789859A8580
S11309A02B960FB6F894DEBF0FBECDBFDF91CF916B
S11309B00895CF93DF93CDB7DEB784E290E024E2CD
S11309C030E0F90120812760FC01208384E290E07B
S11309D024E230E0F90120812063FC01208384E2D9
S11309E090E024E230E0F9012081277FFC0120839C
S11309F08CE490E02CE430E0F90120812165FC01D5
S1130A0020838DE490E02DE430E0F9012081216021
S1130A10FC01208385E290E025E230E0F9012081A9
S1130A202063FC0120830000DF91CF910895CF93D0
S1130A30DF9300D0CDB7DEB78A8319828EE490E0CD
S1130A402A81FC01208319C089818F5F8983898170
S1130A50883C50F082E290E022E230E0F90120810B
S1130A602160FC0120830FC082E290E022E230E0AA
S1130A70F90120812E7FFC0120838DE490E0FC01AC
S1130A80808188230CF78EE490E0FC0180810F9034
S1130A900F90DF91CF9108955058BB27AA270ED00D
S1130AA04DC13ED130F043D120F031F49F3F11F4D9
S1130AB01EF433C10EF4E095E7FB29C1E92F4FD1B1
S1130AC080F3BA17620773078407950718F071F467
S1130AD09EF567C10EF4E0950B2EBA2FA02D0B01E5
S1130AE0B90190010C01CA01A0011124FF27591B6F
S1130AF099F0593F50F4503E68F11A16F040A22F75
S1130B00232F342F4427585FF3CF469537952795E5
S1130B10A795F0405395C9F77EF41F16BA0B620BE4
S1130B20730B840BBAF09150A1F0FF0FBB1F661F2B
S1130B30771F881FC2F70EC0BA0F621F731F841F6E
S1130B4048F4879577956795B795F7959E3F08F094
S1130B50B3CF9395880F08F09927EE0F9795879553
S1130B6008950CD0EBC0E3D040F0DAD030F021F49B
S1130B705F3F19F0CCC0511115C1CFC0F0D098F32C
S1130B809923C9F35523B1F3951B550BBB27AA270A
S1130B9062177307840738F09F5F5F4F220F331F7C
S1130BA0441FAA1FA9F333D00E2E3AF0E0E830D048
S1130BB091505040E695001CCAF729D0FE2F27D04B
S1130BC0660F771F881FBB1F261737074807AB0719
S1130BD0B0E809F0BB0B802DBF01FF2793585F4F8E
S1130BE02AF09E3F510568F092C0DCC05F3FECF3F1
S1130BF0983EDCF3869577956795B795F7959F5F53
S1130C00C9F7880F911D9695879597F90895E1E0A6
S1130C10660F771F881FBB1F621773078407BA0705
S1130C2020F0621B730B840BBA0BEE1F88F7E09560
S1130C30089504D06894B111B5C0089598D088F08F
S1130C409F5790F0B92F9927B751A0F0D1F0660FB4
S1130C50771F881F991F1AF0BA95C9F712C0B130CF
S1130C6081F09FD0B1E008959CC0672F782F88272A
S1130C70B85F39F0B93FCCF3869577956795B3950E
S1130C80D9F73EF490958095709561957F4F8F4F7D
S1130C909F4F0895E89409C097FB3EF49095809582
S1130CA0709561957F4F8F4F9F4F9923A9F0F92F2E
S1130CB096E9BB279395F695879577956795B795AC
S1130CC0F111F8CFFAF4BB0F11F460FF1BC06F5F92
S1130CD07F4F8F4F9F4F16C0882311F096E911C0A4
S1130CE0772321F09EE8872F762F05C0662371F0C5
S1130CF096E8862F70E060E02AF09A95660F771FD9
S1130D00881FDAF7880F9695879597F9089597F9CC
S1130D109F6780E870E060E008959FEF80EC08959D
S1130D2000240A94161617061806090608950024C6
S1130D300A9412161306140605060895092E039440
S1130D40000C11F4882352F0BB0F40F4BF2B11F4B4
S1130D5060FF04C06F5F7F4F8F4F9F4F089557FD13
S1130D609058440F551F59F05F3F71F04795880F15
S1130D7097FB991F61F09F3F79F0879508951216AC
S1130D8013061406551FF2CF4695F1DF08C0161658
S1130D9017061806991FF1CF869571056105089409
S1130DA00895E894BB2766277727CB0197F9089520
S1130DB00BD0C4CFB5DF28F0BADF18F0952309F0C3
S1130DC0A6CFABCF1124EECFCADFA0F3959FD1F30A
S1130DD0950F50E0551F629FF001729FBB27F00DE5
S1130DE0B11D639FAA27F00DB11DAA1F649F66273A
S1130DF0B00DA11D661F829F2227B00DA11D621F89
S1130E00739FB00DA11D621F839FA00D611D221F42
S1130E10749F3327A00D611D231F849F600D211D26
S1130E20822F762F6A2F11249F5750408AF0E1F0C9
S1130E3088234AF0EE0FFF1FBB1F661F771F881F12
S1130E4091505040A9F79E3F510570F060CFAACF52
S1130E505F3FECF3983EDCF3869577956795B795FD
S1130E60F795E7959F5FC1F7FE2B880F911D969527
S10D0E70879597F90895F894FFCFD1
S9030000FC
