S01000005541435F546573742E737265633C
S113000049C0000057C0000055C0000053C00000A4
S113001051C000004FC000004DC000004BC00000A4
S113002049C0000047C0000045C0000043C00000B4
S113003041C000003FC000003DC000003BC00000C4
S11300401FC2000037C0000035C0000033C00000EC
S113005031C000002FC000002DC000002BC00000E4
S113006029C0000028C0000025C0000023C00000F3
S113007021C000001FC000001DC000001BC0000004
S113008019C0000017C0000015C0000013C0000014
S113009011C0000011241FBECFEFD0E1DEBFCDBFE1
S11300A021E0A0E0B1E001C01D92A931B207E1F75F
S11300B049D055C3A5CF1F920F9200905F000F92B5
S11300C0112400905B000F922F933F938F939F9383
S11300D0EF93FF93CF93DF93CDB7DEB78091000109
S11300E0882F90E028E730E0F90120813181880FE2
S11300F0991F8B5E9E4FFC01318320838091000108
S11301008F5F8093000180910001813011F410927F
S113011000018CE790E0209100012064FC01208321
S11301200000DF91CF91FF91EF919F918F913F91CB
S11301302F910F9000925B000F9000925F000F9040
S11301401F901895EF92FF920F931F93CF93DF9315
S1130150CDB7DEB72E970FB6F894DEBF0FBECDBF76
S11301603FD177D1BBD17894209111013091120104
S11301704091130150911401809101019091020169
S1130180A0910301B0910401281739074A075B07BE
S113019081F08091110190911201A0911301B0910D
S11301A014018093010190930201A0930301B09381
S11301B004012091110130911201409113015091D9
S11301C014018091050190910601A0910701B0915D
S11301D0080179018A01E81AF90A0A0B1B0BD801F4
S11301E0C7010A97A105B10580F080911101909192
S11301F01201A0911301B091140180930501909311
S11302000601A0930701B0930801209111013091D8
S113021012014091130150911401809109019091B0
S11302200A01A0910B01B0910C0179018A01E81A2D
S1130230F90A0A0B1B0BD801C70184369105A105E5
S1130240B10508F49EC085E290E025E230E0F901B2
S113025020812F7EFC0120838EE490E022E2FC01C9
S113026020838EE490E0FC018081882F90E09093BD
S113027018018093170180E090E0A8ECB2E4898330
S11302809A83AB83BC8320E030E04AE753E469817E
S11302907A818B819C81D8D1DC01CB018D839E83B3
S11302A0AF83B88720E030E040E85FE36D817E8172
S11302B08F81988548D188232CF481E090E09A8737
S11302C089873BC020E03FEF4FE757E46D817E8193
S11302D08F819885B5D118163CF520E030E040E2D6
S11302E051E469817A818B819C81AED1DC01CB019F
S11302F0BC01CD012CD1DC01CB019A8789870FC0C9
S113030089E190E09C878B878B859C850197F1F729
S11303109C878B8789859A8501979A8789878985A0
S11303209A85892B69F713C06D817E818F819885A9
S11303300ED1DC01CB019A87898789859A859E87AE
S11303408D878D859E850197F1F79E878D8785E240
S113035090E025E230E0F90120812061FC01208356
S11303608091110190911201A0911301B091140197
S11303708093090190930A01A0930B01B0930C019F
S113038056D02091110130911201409113015091E6
S1130390140180910D0190910E01A0910F01B09173
S11303A0100179018A01E81AF90A0A0B1B0BD8011A
S11303B0C701883C9105A105B10508F4D5CE80910B
S11303C0110190911201A0911301B0911401809335
S11303D00D0190930E01A0930F01B0931001C4CEB0
S11303E0CF93DF93CDB7DEB781E290E023E0FC0149
S11303F0208384E290E020E4FC01208387E290E003
S1130400FC0110828AE290E0FC0110828DE290E00F
S1130410FC01108280E390E0FC01108285E290E010
S113042020E4FC0120830000DF91CF910895CF9355
S1130430DF93CDB7DEB782E290E022E230E0F9014B
S1130440308122E02327FC0120830000DF91CF913B
S11304500895CF93DF93CDB7DEB784E490E02BE02B
S1130460FC0120838EE690E022E0FC01208387E4F7
S113047090E029EFFC0120830000DF91CF910895E3
S11304801F920F9200905F000F9211248F939F93FD
S1130490AF93BF93CF93DF93CDB7DEB780911101B4
S11304A090911201A0911301B09114010196A11D24
S11304B0B11D8093110190931201A0931301B09385
S11304C014010000DF91CF91BF91AF919F918F9163
S11304D00F9000925F000F901F901895CF93DF93B9
S11304E0CDB7DEB784E290E024E230E0F901208168
S11304F02660FC01208384E290E024E230E0F901EC
S113050020812063FC01208384E290E024E230E037
S1130510F9012081277FFC0120838CE490E02CE406
S113052030E0F90120812265FC0120838EE290E015
S11305302EE230E0F90120812063FC0120830000D9
S1130540DF91CF9108952FD008F481E0089557D01A
S113055088F09F5790F0B92F9927B751A0F0D1F0A8
S1130560660F771F881F991F1AF0BA95C9F712C032
S1130570B13081F05ED0B1E008955BC0672F782F71
S11305808827B85F39F0B93FCCF38695779567959E
S1130590B395D9F73EF490958095709561957F4F0A
S11305A08F4F9F4F0895990F0008550FAA0BE0E84D
S11305B0FEEF16161706E807F907C0F01216130621
S11305C0E407F50798F0621B730B840B950B39F461
S11305D00A2661F0232B242B252B21F408950A26C7
S11305E009F4A140A6958FEF811D811D089557FD43
S11305F09058440F551F59F05F3F71F04795880F8D
S113060097FB991F61F09F3F79F087950895121623
S113061013061406551FF2CF4695F1DF08C01616CF
S113062017061806991FF1CF869571056105089480
S11306300895E894BB2766277727CB0197F9089597
S1130640B2DF08F48FEF08950BD078C069D028F09A
S11306506ED018F0952309F05AC05FC01124EACF78
S1130660C6DFA0F3959FD1F3950F50E0551F629F0D
S1130670F001729FBB27F00DB11D639FAA27F00DF7
S1130680B11DAA1F649F6627B00DA11D661F829F1E
S11306902227B00DA11D621F739FB00DA11D621F03
S11306A0839FA00D611D221F749F3327A00D611D20
S11306B0231F849F600D211D822F762F6A2F112402
S11306C09F5750408AF0E1F088234AF0EE0FFF1F55
S11306D0BB1F661F771F881F91505040A9F79E3F8C
S11306E0510570F014C0A6CF5F3FECF3983EDCF3E5
S11306F0869577956795B795F795E7959F5FC1F7C9
S1130700FE2B880F911D9695879597F9089597F973
S11307109F6780E870E060E008959FEF80EC0895A3
S113072000240A94161617061806090608950024CC
S11307300A9412161306140605060895092E039446
S1130740000C11F4882352F0BB0F40F4BF2B11F4BA
S113075060FF04C06F5F7F4F8F4F9F4F0895F894E1
S1050760FFCFC5
S9030000FC
