:1000000049C0000057C0000055C0000053C00000A8
:1000100051C000004FC000004DC000004BC00000A8
:1000200049C0000047C0000045C0000043C00000B8
:1000300041C000003FC000003DC000003BC00000C8
:1000400013C3000037C0000035C0000033C00000FB
:1000500031C000002FC000002DC000002BC00000E8
:1000600029C0000028C0000025C0000023C00000F7
:1000700021C000001FC000001DC000001BC0000008
:1000800019C0000017C0000015C0000013C0000018
:1000900011C0000011241FBECFEFD0E1DEBFCDBFE5
:1000A00021E0A0E0B1E001C01D92A332B207E1F768
:1000B000B6D13DC3A5CF1F920F9200905F000F9263
:1000C000112400905B000F922F933F938F939F9387
:1000D000EF93FF93CF93DF93CDB7DEB7809100010D
:1000E000882F90E028E730E0F90120813181880FE6
:1000F000991F8E5E9E4FFC01318320838091000109
:100100008F5F8093000180910001813011F4109283
:1001100000018CE790E0209100012064FC01208325
:100120000000DF91CF91FF91EF919F918F913F91CF
:100130002F910F9000925B000F9000925F000F9044
:100140001F901895CF93DF9300D0CDB7DEB78A8389
:1001500019828A818830C0F08DED90E0FC018081A9
:10016000882F90E02A81222F30E02850310902C0E8
:10017000959587952A95E2F78170992721E0892B3B
:1001800009F020E0298315C08CED90E0FC0180810E
:10019000882F90E02A81222F30E002C09595879524
:1001A0002A95E2F78170992721E0892B09F020E058
:1001B000298389810F900F90DF91CF910895CF937C
:1001C000DF9300D0CDB7DEB788ED90E0FC01108260
:1001D000198256C08DEE90E02981222F30E02295C1
:1001E0003295307F3227207F32272860FC01208320
:1001F0008EEE90E0FC0110828FEE90E0FC01108208
:1002000080EF90E0FC01108281EF90E0FC01108211
:1002100082EF90E0FC01108283EF90E0FC011082FD
:1002200084EF90E0FC01108285EF90E0FC011082E9
:1002300086EF90E0FC01108287EF90E0FC011082D5
:100240001A8218C08DEE90E02981222F30E022958D
:100250003295307F3227207F3227322F2A81232B7D
:100260002860FC0120838AEF90E0FC0110828A81E3
:100270008F5F8A838A81883028F389818F5F8983A1
:1002800089818F3008F4A6CF82EE90E022E0FC0155
:10029000208383EE90E02CE0FC01208384EE90E04C
:1002A00027E3FC0120838BED90E0FC01108288EDB8
:1002B00090E028ED30E0F90120812260FC012083EC
:1002C00000000F900F90DF91CF910895CF93DF93AF
:1002D00000D000D01F92CDB7DEB79B838A837D8389
:1002E0006C83198224C08DEE90E02A813B81F90154
:1002F0002481222F30E022953295307F3227207FD3
:100300003227322F2981232B2860FC0120838AEF9A
:1003100090E02981222F30E04C815D81240F351F30
:10032000F9012081FC01208389818F5F8983898184
:100330008830C8F28DEE90E02A813B81F90124815A
:100340002295207FFC0120838A819B81FC0184818E
:10035000F9DE882309F444C08EEE90E0FC0110829F
:1003600083EF90E02A813B81F9012081318136952C
:1003700027953695279536952795FC01208382EFA2
:1003800090E02A813B81F901208131812295220F61
:10039000207EFC01208381EF90E0FC01108280EF41
:1003A00090E0FC01108287EF90E0FC01108286EF64
:1003B00090E0FC01108285EF90E0FC01108284EF58
:1003C00090E0FC0110828EEE90E0FC0110828FEE36
:1003D00090E028E4FC0120838EEE90E0FC01108286
:1003E00000000F900F900F900F900F90DF91CF9122
:1003F0000895CF93DF93CDB7DEB780E097E0909379
:100400001501809314018FEF9FEF90931701809354
:100410001601109218010000DF91CF910895EF921C
:10042000FF920F931F93CF93DF93CDB7DEB72D9736
:100430000FB6F894DEBF0FBECDBFE0D0FED0BFDE5A
:10044000D8DF40D181E397E09A8389838FEF9FEFD4
:100450009C838B831D8228E0CE010696FC01E22E50
:100460001192EA94E9F7789420910E0130910F01EE
:100470004091100150911101809101019091020170
:10048000A0910301B0910401281739074A075B07BF
:1004900081F080910E0190910F01A0911001B09117
:1004A00011018093010190930201A0930301B09385
:1004B000040120910E0130910F01409110015091E3
:1004C00011018091050190910601A0910701B09161
:1004D000080179018A01E81AF90A0A0B1B0BD801F5
:1004E000C7010A97A105B10580F080910E01909196
:1004F0000F01A0911001B09111018093050190931B
:100500000601A0930701B093080120910E013091DC
:100510000F014091100150911101809109019091BA
:100520000A01A0910B01B0910C0179018A01E81A2E
:10053000F90A0A0B1B0BD801C70184369105A105E6
:10054000B10508F491CF80910D01882369F585E20A
:1005500090E025E230E0F90120812F7EFC0120832C
:100560008EE490E022E2FC01208300008DE490E024
:10057000FC0180818823D4F78EE490E0FC01808127
:10058000882F90E0909322018093210185E290E0F2
:1005900025E230E0F90120812061FC012083809177
:1005A0000D018F5F80930D011E821F8280912101BA
:1005B0009091220188878091210190912201892FB9
:1005C000992789871A861B861C861D86CE0106966A
:1005D000BC01CE0101967ADE1ED080910E01909171
:1005E0000F01A0911001B091110180930901909326
:1005F0000A01A0930B01B0930C0136CFCF93DF9388
:10060000CDB7DEB781E290E023E0FC01208300005B
:10061000DF91CF910895CF93DF93CDB7DEB782E21C
:1006200090E022E230E0F901308122E02327FC0152
:1006300020830000DF91CF910895CF93DF93CDB752
:10064000DEB784E490E02BE0FC0120838EE690E0AE
:1006500022E0FC01208387E490E029EFFC01208365
:100660000000DF91CF9108951F920F9200905F00DC
:100670000F9211248F939F93AF93BF93CF93DF93E8
:10068000CDB7DEB780910E0190910F01A0911001BE
:10069000B09111010196A11DB11D80930E0190939F
:1006A0000F01A0931001B09311010000DF91CF91D1
:1006B000BF91AF919F918F910F9000925F000F902B
:1006C0001F901895CF93DF93CDB7DEB784E290E00B
:1006D00024E230E0F90120812660FC01208384E2DD
:1006E00090E024E230E0F90120812063FC012083C6
:1006F00084E290E024E230E0F9012081277FFC01D0
:1007000020838CE490E02CE430E0F9012081226524
:10071000FC01208385E290E025E230E0F9012081B0
:100720002063FC0120830000DF91CF910895F894AD
:02073000FFCFF9
:00000001FF
