S01000005541435F545932352E73726563C8
S113000049C0000057C0000055C0000053C00000A4
S113001051C000004FC000004DC000004BC00000A4
S113002049C0000047C0000045C0000043C00000B4
S113003041C000003FC000003DC000003BC00000C4
S113004073C2000037C0000035C0000033C0000098
S113005031C000002FC000002DC000002BC00000E4
S113006029C0000028C0000025C0000023C00000F3
S113007021C000001FC000001DC000001BC0000004
S113008019C0000017C0000015C0000013C0000014
S113009011C0000011241FBECFEFD0E1DEBFCDBFE1
S11300A021E0A0E0B1E001C01D92A931B207E1F75F
S11300B019D145C4A5CF1F920F9200905F000F92F3
S11300C0112400905B000F922F933F938F939F9383
S11300D0EF93FF93CF93DF93CDB7DEB78091000109
S11300E0882F90E028E730E0F90120813181880FE2
S11300F0991F895E9E4FFC0131832083809100010A
S11301008F5F8093000180910001813011F410927F
S113011000018CE790E0209100012064FC01208321
S11301200000DF91CF91FF91EF919F918F913F91CB
S11301302F910F9000925B000F9000925F000F9040
S11301401F901895CF93DF9300D0CDB7DEB78A8385
S113015019828A818830C0F08DED90E0FC018081A5
S1130160882F90E02A81222F30E02850310902C0E4
S1130170959587952A95E2F78170992721E0892B37
S113018009F020E0298315C08CED90E0FC0180810A
S1130190882F90E02A81222F30E002C09595879520
S11301A02A95E2F78170992721E0892B09F020E054
S11301B0298389810F900F90DF91CF910895CF9378
S11301C0DF9300D000D01F92CDB7DEB79B838A8324
S11301D07D836C83198224C08DEE90E02A813B815B
S11301E0F9012481222F30E022953295307F322785
S11301F0207F3227322F2981232B2860FC01208382
S11302008AEF90E02981222F30E04C815D81240F18
S1130210351FF9012081FC01208389818F5F898347
S113022089818830C8F28DEE90E02A813B81F90102
S113023024812295207FFC0120838A819B81FC01FB
S1130240848180DF882309F444C08EEE90E0FC01B1
S1130250108283EF90E02A813B81F9012081318172
S1130260369527953695279536952795FC01208355
S113027082EF90E02A813B81F9012081318122952E
S1130280220F207EFC01208381EF90E0FC0110828C
S113029080EF90E0FC01108287EF90E0FC01108277
S11302A086EF90E0FC01108285EF90E0FC01108263
S11302B084EF90E0FC0110828EEE90E0FC0110824D
S11302C08FEE90E028E4FC0120838EEE90E0FC01A8
S11302D0108200000F900F900F900F900F90DF91FD
S11302E0CF910895EF92FF920F931F93CF93DF93D3
S11302F0CDB7DEB72D970FB6F894DEBF0FBECDBFD6
S1130300DDD0FBD0CAD180E097E09A8389838FEF58
S11303109FEF9C838B831D8228E0CE010696FC010F
S1130320E22E1192EA94E9F7789420911301309126
S11303301401409115015091160180910101909191
S11303400201A0910301B0910401281739074A075B
S11303505B0781F08091130190911401A091150124
S1130360B09116018093010190930201A0930301BF
S1130370B0930401209113013091140140911501AF
S1130380509116018091050190910601A0910701F9
S1130390B091080179018A01E81AF90A0A0B1B0BCA
S11303A0D801C7010A97A105B10580F08091130116
S11303B090911401A0911501B0911601809305014B
S11303C090930601A0930701B093080120911301B3
S11303D03091140140911501509116018091090149
S11303E090910A01A0910B01B0910C0179018A014D
S11303F0E81AF90A0A0B1B0BD801C70184369105C8
S1130400A105B105F8F01E821F82188619861A8686
S11304101B861C861D86CE010696BC01CE01019664
S1130420CEDE59D08091130190911401A091150151
S1130430B09116018093090190930A01A0930B01D6
S1130440B0930C01209113013091140140911501D6
S11304505091160180910D0190910E01A0910F0110
S1130460B091100179018A01E81AF90A0A0B1B0BF1
S1130470D801C701883C9105A105B10508F455CF01
S113048081E080D0DC01CB01BC01CD013BD1DC019A
S1130490CB019093120180931101809113019091EB
S11304A01401A0911501B091160180930D01909350
S11304B00E01A0930F01B093100137CFCF93DF93B8
S11304C0CDB7DEB781E290E023E0FC012083000099
S11304D0DF91CF910895CF93DF93CDB7DEB782E25A
S11304E090E022E230E0F901308122E02327FC0190
S11304F020830000DF91CF910895CF93DF93CDB790
S1130500DEB784E490E02BE0FC0120838EE690E0EB
S113051022E0FC01208387E490E029EFFC012083A2
S11305200000DF91CF9108951F920F9200905F0019
S11305300F9211248F939F93AF93BF93CF93DF9325
S1130540CDB7DEB78091130190911401A0911501EC
S1130550B09116010196A11DB11D809313019093D2
S11305601401A0931501B09316010000DF91CF91FF
S1130570BF91AF919F918F910F9000925F000F9068
S11305801F901895CF93DF93CDB7DEB729970FB699
S1130590F894DEBF0FBECDBF898719821A821C82F0
S11305A01B821D821E821F8218868985882F90E0F7
S11305B0009719F0019759F014C085E290E025E204
S11305C030E0F90120812F7EFC0120830AC085E2FE
S11305D090E025E230E0F90120812F7DFC012083A9
S11305E000008985882F90E0009719F0019759F051
S11305F014C085E290E025E230E0F9012081206119
S1130600FC0120830AC085E290E025E230E0F90194
S113061020812062FC01208300008981882F90E0E2
S1130620382F22278A81882F90E0822B932B9C835A
S11306308B838B819C8196958795969587959695C6
S113064087959770CC01A0E0B0E0BC01CD0186D0C5
S1130650DC01CB0120E030E040E85EE3BC01CD01E9
S1130660E3D0DC01CB018D839E83AF83B88720E088
S113067030E048EC52E46D817E818F819885D4D03E
S1130680DC01CB01BC01CD0129960FB6F894DEBF85
S11306900FBECDBFDF91CF910895CF93DF93CDB738
S11306A0DEB784E290E024E230E0F90120812660A4
S11306B0FC01208384E290E024E230E0F90120810F
S11306C02063FC01208384E290E024E230E0F9011D
S11306D02081277FFC0120838CE490E02CE430E02F
S11306E0F90120812265FC01208385E290E025E266
S11306F030E0F90120812063FC0120830000DF91B8
S1130700CF91089570D088F09F5790F0B92F992712
S1130710B751A0F0D1F0660F771F881F991F1AF008
S1130720BA95C9F712C0B13081F077D0B1E008951D
S113073074C0672F782F8827B85F39F0B93FCCF39E
S1130740869577956795B395D9F73EF490958095FE
S1130750709561957F4F8F4F9F4F0895E89409C01E
S113076097FB3EF490958095709561957F4F8F4FE0
S11307709F4F9923A9F0F92F96E9BB279395F695F6
S1130780879577956795B795F111F8CFFAF4BB0F74
S113079011F460FF1BC06F5F7F4F8F4F9F4F16C0D8
S11307A0882311F096E911C0772321F09EE8872F62
S11307B0762F05C0662371F096E8862F70E060E01E
S11307C02AF09A95660F771F881FDAF7880F969597
S11307D0879597F9089557FD9058440F551F59F080
S11307E05F3F71F04795880F97FB991F61F09F3F1A
S11307F079F087950895121613061406551FF2CF43
S11308004695F1DF08C0161617061806991FF1CF92
S113081086957105610508940895E894BB276627B9
S11308207727CB0197F908950BD078C069D028F0C9
S11308306ED018F0952309F05AC05FC01124EECF92
S1130840CADFA0F3959FD1F3950F50E0551F629F27
S1130850F001729FBB27F00DB11D639FAA27F00D15
S1130860B11DAA1F649F6627B00DA11D661F829F3C
S11308702227B00DA11D621F739FB00DA11D621F21
S1130880839FA00D611D221F749F3327A00D611D3E
S1130890231F849F600D211D822F762F6A2F112420
S11308A09F5750408AF0E1F088234AF0EE0FFF1F73
S11308B0BB1F661F771F881F91505040A9F79E3FAA
S11308C0510570F014C0AACF5F3FECF3983EDCF3FF
S11308D0869577956795B795F795E7959F5FC1F7E7
S11308E0FE2B880F911D9695879597F9089597F992
S11308F09F6780E870E060E008959FEF80EC0895C2
S113090000240A94161617061806090608950024EA
S11309100A9412161306140605060895092E039464
S1130920000C11F4882352F0BB0F40F4BF2B11F4D8
S113093060FF04C06F5F7F4F8F4F9F4F0895F894FF
S1050940FFCFE3
S9030000FC
