S01000005541435F545932352E73726563C8
S113000049C0000064C0000062C0000060C000007D
S11300105EC000005CC000005AC0000058C0000070
S113002056C0000054C0000052C0000050C0000080
S11300304EC000004CC000004AC0000048C0000090
S11300408DC2000044C0000042C0000040C0000057
S11300503EC000003CC000003AC0000038C00000B0
S113006036C0000035C0000032C0000030C00000BF
S11300702EC000002CC000002AC0000028C00000D0
S113008026C0000024C0000022C0000020C00000E0
S11300901EC0000011241FBECFEFD0E1DEBFCDBFD4
S11300A011E0A0E0B1E0E6E2F6E000E00BBF02C040
S11300B007900D92A030B107D9F721E0A0E0B1E09C
S11300C001C01D92A731B207E1F719D1AAC298CF96
S11300D01F920F9200905F000F92112400905B001A
S11300E00F922F933F938F939F93EF93FF93CF930D
S11300F0DF93CDB7DEB780910001882F90E028E729
S113010030E0F90120813181880F991F8B5E9E4F69
S1130110FC0131832083809100018F5F8093000173
S113012080910001813011F4109200018CE790E07D
S1130130209100012064FC0120830000DF91CF9115
S1130140FF91EF919F918F913F912F910F9000928A
S11301505B000F9000925F000F901F901895CF9353
S1130160DF9300D0CDB7DEB78A8319828A818830C5
S1130170C0F08DED90E0FC018081882F90E02A8111
S1130180222F30E02850310902C0959587952A9591
S1130190E2F78170992721E0892B09F020E0298377
S11301A015C08CED90E0FC018081882F90E02A81BD
S11301B0222F30E002C0959587952A95E2F7817049
S11301C0992721E0892B09F020E0298389810F9068
S11301D00F90DF91CF910895CF93DF9300D000D09B
S11301E01F92CDB7DEB79B838A837D836C8319828C
S11301F024C08DEE90E02A813B81F9012481222FD5
S113020030E022953295307F3227207F3227322FFB
S11302102981232B2860FC0120838AEF90E0298127
S1130220222F30E04C815D81240F351FF90120819C
S1130230FC01208389818F5F898389818830C8F29A
S11302408DEE90E02A813B81F90124812295207F63
S1130250FC0120838A819B81FC01848180DF8823C7
S113026009F444C08EEE90E0FC01108283EF90E02C
S11302702A813B81F9012081318136952795369574
S1130280279536952795FC01208382EF90E02A81FB
S11302903B81F901208131812295220F207EFC01CE
S11302A0208381EF90E0FC01108280EF90E0FC015C
S11302B0108287EF90E0FC01108286EF90E0FC0151
S11302C0108285EF90E0FC01108284EF90E0FC0145
S11302D010828EEE90E0FC0110828FEE90E028E414
S11302E0FC0120838EEE90E0FC01108200000F9050
S11302F00F900F900F900F90DF91CF910895EF9290
S1130300FF920F931F93CF93DF93CDB7DEB72D9753
S11303100FB6F894DEBF0FBECDBFD0D008D14CD1FC
S113032080E097E09A8389838FEF9FEF9C838B8390
S11303301D8228E0CE010696FC01E22E1192EA9479
S1130340E9F7789420911101309112014091130141
S1130350509114018091010190910201A091030137
S1130360B0910401281739074A075B0781F080918F
S1130370110190911201A0911301B0911401809385
S1130380010190930201A0930301B0930401209111
S11303901101309112014091130150911401809187
S11303A0050190910601A0910701B091080179011E
S11303B08A01E81AF90A0A0B1B0BD801C7010A972C
S11303C0A105B10580F08091110190911201A091D5
S11303D01301B09114018093050190930601A09339
S11303E00701B0930801209111013091120140914D
S11303F01301509114018091090190910A01A09177
S11304000B01B0910C0179018A01E81AF90A0A0B6F
S11304101B0BD801C70184369105A105B105F8F07D
S11304201E821F82188619861A861B861C861D86C4
S1130430CE010696BC01CE010196CEDE809111015B
S113044090911201A0911301B091140180930901BC
S113045090930A01A0930B01B0930C0156D0209104
S113046011013091120140911301509114018091B6
S11304700D0190910E01A0910F01B091100179012D
S11304808A01E81AF90A0A0B1B0BD801C701883C38
S11304909105A105B10508F455CF80911101909102
S11304A01201A0911301B091140180930D01909356
S11304B00E01A0930F01B093100144CFCF93DF93AB
S11304C0CDB7DEB781E290E023E0FC01208384E233
S11304D090E020E4FC01208387E290E0FC0110829C
S11304E08AE290E0FC0110828DE290E0FC0110822F
S11304F080E390E0FC01108285E290E020E4FC01BE
S113050020830000DF91CF910895CF93DF93CDB77F
S1130510DEB782E290E022E230E0F901308122E0AD
S11305202327FC0120830000DF91CF910895CF930E
S1130530DF93CDB7DEB784E490E02BE0FC012083A9
S11305408EE690E022E0FC01208387E490E029EF2E
S1130550FC0120830000DF91CF9108951F920F9238
S113056000905F000F9211248F939F93AF93BF93DA
S1130570CF93DF93CDB7DEB7809111019091120133
S1130580A0911301B09114010196A11DB11D809396
S1130590110190931201A0931301B0931401000070
S11305A0DF91CF91BF91AF919F918F910F90009266
S11305B05F000F901F901895CF93DF93CDB7DEB7F0
S11305C084E290E024E230E0F90120812660FC011D
S11305D0208384E290E024E230E0F901208120636A
S11305E0FC01208384E290E024E230E0F9012081E0
S11305F0277FFC0120838CE490E02CE430E0F901B7
S113060020812265FC0120838EE290E02EE230E01E
S1130610F90120812063FC0120830000DF91CF9148
S10906200895F894FFCFD9
S9030000FC
